:0A0000000C9447000C9474000C945B
:10000A0000000C9400000C9400000C9400000C9466
:10001A0000000C9400000C9400000C9400000C9456
:10002A0000000C9400000C9400000C9400000C9446
:10003A0000000C9400000C9400000C9400000C9436
:10004A0000000C9400000C9400001027E8036400E0
:10005A000A00010000100001100001000101E8037C
:10006A00030300015350454544204368616E6765A8
:10007A0020436F696C3A2025640A0D0008000400C9
:10008A0066000000F894EE27ECBBF1E0FBBFEBBF83
:10009A00E5BF8DE0A2E0BB27ED938A95E9F780E002
:1000AA0094E0A0E6ED930197E9F7E6E8F0E08591A0
:1000BA009591009761F0A591B59105901590BF01B2
:1000CA00F00105900D920197E1F7FB01F0CFEFE502
:1000DA00EDBFE4E0EEBFC0E6D1E00C9414010A9251
:1000EA001A92FA926A937A938A939A93AA93BA93F0
:1000FA00EA93FA93EFB7EA93EEE6F0E0FA93EA931B
:10010A00F3010E9402030E943A0384E00E947A02E9
:10011A002696C89B05C0E42D0E9407034E2E2CC0CC
:10012A00C99B0CC0D301A456B040A536E0E0BE0777
:10013A0024F0E4E6F0E06E1A7F0A1EC0CA9B0CC0E7
:10014A00D301AC59BF4FA03DE7E0BE0724F4F30149
:10015A00EC59FF4F3F0110C0CC9B05C0E1E05E2E79
:10016A00E3E09E2E06C0CB9B07C05524E3E09E2EFB
:10017A00E9E08E2EE1E0BE2EE991EFBFF991E99117
:10018A00B991A9919991899179916991F990199067
:10019A0009901895442009F441C05520C9F0EB2D67
:1001AA00EE0FAE2FEB2DE695E695E695E1700E94EF
:1001BA00B802E92DEE0FAE2FE92DE695E695E69504
:1001CA00E170EA2B9E2EEFE09E22E5B3E9291AC0E0
:1001DA00552021F5EB2DE695AE2FEB2DEE0FEE0F08
:1001EA00EE0FE8700E94B802E82DE695AE2FE82DD2
:1001FA00EE0FEE0FEE0FE870EA2B8E2EEFE08E2256
:10020A00E5B3E829E5BBD301E2E0F0E00E941F0371
:10021A00DF010E94F002E5B3E07FE5BB0895E4B395
:10022A00EF60E4BBE5B3E07FE5BBE5B7E360E5BFBC
:10023A00EBB7E064EBBF7894EAB7E064EABFE0E0CA
:10024A00EBB9E8E0EAB9E6E8E0BDE0E0E0BDE9E103
:10025A00E9B978949FDFFECFFFCFAA935D9BFECFCB
:10026A00E881ECB921960895BA93AA93AA81F5DF99
:10027A00A881B981ED91FD913196FE93EE93239673
:10028A000895BA93AA9326970E943F0310E0AC857B
:10029A00BD85E0E0F0E0ED93FC93EA89FB893196B5
:1002AA00EA8BFB8B3197E4912E2FE03009F415C1CC
:1002BA00E12FE03039F4253211F411E002C00E9436
:1002CA00CB020AC1E130A9F4253219F40E94CB020B
:1002DA0002C112E040E000E02D3211F401E0FCC05E
:1002EA002B3211F44BE2F8C0203211F440E2F4C090
:1002FA0002C0E23039F450E013E0203311F4006810
:10030A00EBC003C0E33009F0E7C0203310F02A3312
:10031A0008F007C0AAE05A9F502DE22FE0535E0F63
:10032A00DBC0E22FE33649F40E94D202E889F98958
:10033A00A481AA930E94D802CEC0E33741F40E9456
:10034A00D2020E94DE020E949F021E2F0AC0E037DC
:10035A0061F40E94D2020E94DE020E94AB021E2FAA
:10036A00086002600F7730E034C0E43611F0E936F5
:10037A0011F4046002C0E53731F4E4E5F0E0EE83FD
:10038A00FF8315E00CC0E83511F4086003C0E837B4
:10039A0009F0A1C0EEE5F0E0EE83FF8314E002FF6E
:1003AA0014C00E94D2020E94E802AB85AA233AF442
:1003BA00EA85FB850E94FE02EA87FB874DE2403010
:1003CA0011F01F5F01C00B7F04C00E94D2020E947D
:1003DA00E80200FD11C0151778F407FF08C002FFF4
:1003EA0004C00B7F242F115001C020E301C020E27A
:1003FA000E94CB025150EFCF312F01FF17C030308E
:10040A00A1F003FF06C0EE81FF812591EE83FF83F1
:10041A0005C0AE81BF812D91AE83BF830E94CB02FE
:10042A00503009F051503150EACF4BC020E3EE81F1
:10043A00FF810E943603E887F987EE81FF813296B1
:10044A00EE83FF83E885F985AA85BB85AE17BF07CA
:10045A0050F02F5FA885B985EA85FB85EA1BFB0B5F
:10046A00EA87FB87EFCF2A3328F003FF02C0295F10
:10047A0001C0295D04FD1AC0213320F4A885B9857D
:10048A00119709F409C0531710F000FF01C013C0F7
:10049A0020E207FF0BC020E3006102FF07C00B7FC9
:1004AA004A930E94D802503009F051500E94CB0260
:1004BA00503009F051503150A885B985129708F08B
:1004CA00B5CF00FF08C0503031F05150E0E2EA9356
:1004DA000E94D802F8CF10E0E0CEAC85BD850E941C
:1004EA0032030E94460364960895FF92F82E2697D7
:1004FA001A930A93DE0114960E94FA028D01E0E033
:10050A00EC83ED83EE83EF83DE0118960E94FA02F4
:10051A000E943203FA93EA931A930A93E9E3F1E009
:10052A00FA93EA93DE011896ACDE198108812896BF
:10053A00FF900895BA93AA93A991B991EE27FF273C
:10054A006D91662311F03196FBCF0895BA93AA9361
:10055A00AA27BB27E991F9910590002011F011967D
:10056A00FBCFFD010895EA2BBE2EEFE0BE22E5B3D4
:10057A00EB29E5BBD301E2E0F0E00E941F03DF01B3
:10058A000E94F002E5B3E07FE5BB08952A93AD85AA
:10059A00BE85EF85F88909950895E889F989349720
:1005AA00E88BF98B0895AD85BE85EF85F8890995A5
:1005BA000895A889B98914960E943203EE83FF83AD
:1005CA00AE81BF810895A889B98914960E94320321
:1005DA00EA87FB870895109639F0A89588EE93E08C
:1005EA000197F1F71197C9F708950024AF0DB01DCF
:1005FA000895F195E195F04008956F2F660F660B07
:10060A00762F0895EE23E1E009F0EE2708950024FD
:10061A00112490E1AA0FBB1F001C111C0E1A1F0AFD
:10062A0018F40E0E1F1E01C0A1609A9599F7FD01DC
:10063A00D001089504D0EBDF0EF4DBDF0895E894CF
:10064A00F7FF02C0D6DF6894B7FF06C0A095B09541
:10065A00119600F8039400FA0895ED91FC91119710
:10066A0008950590F491E02D08957A936A93FA9388
:10067A00EA9308955A934A933A932A931A930A93B8
:10068A0008955D814C813B812A81198108810895F1
:00000001FF
