:0E0000000C9468000C9400000C9400000C940A
:10000E0000000C9400000C9400000C9400000C9462
:10001E0000000C9400000C9400000C9400000C9452
:10002E0000000C9400000C9400000C9400000C9442
:10003E0000000C9400000C9400000C9400000C9432
:10004E0000000C9400001027E80364000A00010071
:10005E0000100001100001001030101010101038A8
:10006E00384404040810207C38440418040444382E
:10007E00040C1424447C04047C404078040444386A
:10008E0038444078444444387C040408102020202E
:10009E003844443844444438384444443C04443896
:1000AE00384444444444443801002D4E414E0049E6
:1000BE004E4600005000600166000100B001B6001F
:1000CE000000F894EE27ECBBF1E0FBBFEBBFE5BF01
:1000DE008DE0A2E0BB27ED938A95E9F780E094E0EE
:1000EE00A0E6ED930197E9F7E2ECF0E085919591AA
:1000FE00009761F0A591B59105901590BF01F001A3
:10010E0005900D920197E1F7FB01F0CFEFE5EDBF02
:10011E00E4E0EEBFC0E6D1E00C940901BD9ABC9AB2
:10012E00BB9AC49AC398C5980895AA931A93C49873
:10013E0010E0183090F4C398EA81E07811F0E1E015
:10014E0001C0E0E0E03011F4C59801C0C59AC39A31
:10015E00EA81EE0FEA831F5FECCF10E0183090F4C7
:10016E00C398E981E07811F0E1E001C0E0E0E03011
:10017E0011F4C59801C0C59AC39AE981EE0FE983BF
:10018E001F5FECCFC49A30C01A93E9E0EA93A0E067
:10019E00CCDFEAE0EA93A3E0C8DFEBE0EA93A7E066
:1001AE00C4DFECE0EA93A1E0C0DFEFE0EA93A0E069
:1001BE00BCDF11E0193028F41A93A0E0B6DF1F5F00
:1001CE00F9CF1EC0BA93AA931A9310E0183060F4B8
:1001DE00E12FEF5FEA93AA81BB81EE27A10FBE1F2D
:1001EE00AC91A3DF1F5FF2CF1881239608951A9367
:1001FE0011E0193028F41A93A0E097DF1F5FF9CFB2
:10020E00199108958BDFC0DFF2DF10E0A12FBB271D
:10021E001A979CF4E12FF0E00E943001E05AFE4F55
:10022E00DF01D0DFA4EFB1E00E942601E0DFA4E6FB
:10023E00B0E00E9426011F5FE9CFE7CFFFCF1096F7
:10024E0039F0A89588EE93E00197F1F71197C9F769
:10025E000895EE0FFF1FEE0FFF1FEE0FFF1F089505
:00000001FF
