:0A0000000C943C000C9400000C94DA
:10000A0000000C9400000C9400000C9400000C9466
:10001A0000000C9400000C9400000C9400000C9456
:10002A0000000C9400000C9400000C9400000C9446
:10003A0000000C9400000C9400000C9400000C9436
:10004A0000000C9400000C9400003F065B4F666DA4
:10005A007D077F6F2D4E414E000001002D4E414E0F
:10006A0000494E4600000100600164000000F89457
:10007A00EE27ECBBF1E0FBBFEBBFE5BF8DE0A2E0F2
:10008A00BB27ED938A95E9F780E094E0A0E6ED932B
:10009A000197E9F7E0E7F0E085919591009761F023
:1000AA00A591B59105901590BF01F00105900D92AB
:1000BA000197E1F7FB01F0CFEFE5EDBFE4E0EEBF1A
:1000CA00C0E6D1E00C946900E4B3EB60E4BBE0E085
:1000DA00EBB9E8E0EAB9E6E8E0BDE0E0E0BDE9E175
:1000EA00E9B903D006D0FFCFFFCFA898A998AB985B
:1000FA0008952A978AE0A0E0B0E0E4E5F0E00E94E3
:10010A00FE000E94F00000E010E020E030E0EAE0AB
:10011A00F0E0E017F10721F400E010E02F5F3F4F15
:10012A00DE011696A00FB11F5C91DE011696A20F92
:10013A00B31F4C915A93A1E024D08DE08A95F1F730
:10014A004A93A0E01ED0AB9A8DE08A95F1F7AB985E
:10015A00A8ECB0E00E941301D801E9E0F0E00E94A7
:10016A000D010E2ED901E9E0F0E00E940D01E02117
:10017A0029F020E030E000E010E002C00F5F1F4FDE
:10018A00C6CFAA930E94F20006E010E0112382F083
:10019A00E02FAD810E940501E1703E2F303011F051
:1001AA00A99A01C0A9980E94E70001501040EECF19
:1001BA00EC81E03019F0A9980E94E7000E94F9004A
:1001CA0026960895A89A8DE08A95F1F7A8988DE069
:1001DA008A95F1F708955A934A933A932A931A9370
:1001EA000A9308955D814C813B812A811981088196
:1001FA000895AC0FBD1F05900D928A95E1F70895F9
:10020A00EE230E2EEA2F19F0E6950A94E9F70895DF
:10021A00EA17FB07E1E009F0EE270895109639F096
:10022A00A89588EE93E00197F1F71197C9F7089519
:00000001FF
