:060000000C9438000C9482
:1000060000000C9400000C9400000C9400000C946A
:1000160000000C9400000C9400000C9400000C945A
:1000260000000C9400000C9400000C9400000C944A
:1000360000000C9400000C9400000C9400000C943A
:1000460000000C9400000C9400000C9400003F008B
:1000560006005B004F0066006D007D0007007F0014
:100066006F001300600154000000F894EE27ECBB0B
:10007600F1E0FBBFEBBFE5BF8DE0A2E0BB27ED9350
:100086008A95E9F780E094E0A0E6ED930197E9F719
:10009600E8E6F0E085919591009761F0A591B5911C
:1000A60005901590BF01F00105900D920197E1F7BB
:1000B600FB01F0CFEFE5EDBFE4E0EEBFC0E6D1E037
:1000C6000C946500E4B3EF67E4BBE0E0E5BB229780
:1000D600E0E0E883E983E883E983A881B9811A9798
:1000E600D0F4E881F981A0E6B1E0EE0FFF1FAE0F74
:1000F600BF1FEC91E5BBA8EEB3E00E949100E0E0E3
:10010600E5BBAAE0B0E00E949100E881F981319652
:10011600E883F983E2CF2296DACFFFCF109639F043
:10012600A89588EE93E00197F1F71197C9F708951E
:00000001FF
