:0A0000000C9471000C9400000C94A5
:10000A0000000C9400000C9400000C9400000C9466
:10001A0000000C9400000C9400000C9400000C9456
:10002A0000000C9400000C9400000C9400000C9446
:10003A0000000C9400000C9400000C9400000C9436
:10004A0000000C9400000C94000000000000000066
:10005A0000003738392F3435362A3132332D6330A0
:10006A003D2B25640A0D004572726F723A2044696D
:10007A00762F3000496E76616C6964204F700025D6
:10008A00640042756666657220636F6E74656E748D
:10009A003A2025730A00696E707574436F756E7421
:1000AA0065723A202564200A0D002D4E414E00004B
:1000BA0001002D4E414E00494E46000080C0070007
:1000CA0005005400100060015C000100A001BA00A4
:1000DA000200A401C6000000F894EE27ECBBF1E090
:1000EA00FBBFEBBFE5BF8DE0A2E0BB27ED938A958E
:1000FA00E9F780E094E0A0E6ED930197E9F7E8ECF0
:10010A00F0E085919591009761F0A591B5910590E0
:10011A001590BF01F00105900D920197E1F7FB01DF
:10012A00F0CFEFE5EDBFE4E0EEBFC0E6D1E00C941E
:10013A009E00EFE0E4BBE0E0EBB9E8E0EAB9E6E80C
:10014A00E0BDE0E0E0BDE9E1E9B9A0E10E94AB066B
:10015A0002D0FECFFFCF0E943F0B20E030E050E0FC
:10016A0041E010E0143008F0F3C015B2E12FA1E02D
:10017A000E94630AE129E5BB04E0083008F0DAC00E
:10018A000E946B0709F4D4C0E12FA0E6B1E0F0E0C9
:10019A000E94740AAE0FBF1FE02FF0E03497AE0F33
:1001AA00BF1F5C91533681F40E946B07E9F70E94E6
:1001BA0062060E947707E0E0F0E05F014F013F012D
:1001CA0041E020E030E0C5C05F3231F05A3221F020
:1001DA005D3211F05B3259F4552E40E020E030E0F8
:1001EA00A52F0E946F060E946B07E9F7A1C05D3335
:1001FA0009F081C00E946B07E9F7A0E7B1E00E940D
:10020A0036053F01A0E8B1E00E9436054F01ECE651
:10021A00F0E0FA93EA93F3010E948D07ECE6F0E02E
:10022A00FA93EA93F4010E948D07E0E0EA93A1E0D1
:10023A000E945306ADE30E946F06E52DF0E0EF320F
:10024A00A0E0FA0771F4082C092831F0F401D3016F
:10025A000E94B70A5F0104C0A1E7B0E00E949806B5
:10026A0021C0EA32A0E0FA0731F4F401D3010E9476
:10027A008C0A5F0117C0ED32A0E0FA0729F4F301F6
:10028A00E819F9095F010EC0EB32A0E0FA0729F478
:10029A00F401E60DF71D5F0105C0AEE7B0E00E946C
:1002AA00980657C0E0E9F1E0FA93EA93E9E8F0E04A
:1002BA00FA93EA93F5010E947F0A0E94240B84E0D4
:1002CA000E94E9042896A0E9B1E00E948906ECE8B8
:1002DA00F0E0FA93EA93E0E9F1E0662777270E94D3
:1002EA00240B84E00E94170526960E94770741E0B6
:1002FA0020E030E02EC0403021F0F901E059FE4FF5
:10030A0003C0F901E058FE4F50832F5F3F4FA52FDE
:10031A000E946F06E0EAF0E0FA93EA93F9010E947C
:10032A008D070E946B07E9F7A2E3B0E00E94A008DC
:10033A000F5F23CF15B2E12FA1E00E94630AE09577
:10034A00E121E5BBAAE0B0E00E94A0081F5F0ACF46
:10035A0008CF0E94460B26960895AA935D9BFECF6E
:10036A00E881ECB90C94D706BA93AA93AA81F5DF6F
:10037A00A881B9810E9496070C94A906BA93AA93F8
:10038A001A930A93AA81BB8112960E940B0B30978B
:10039A0029F1AA81BB8114960E940B0B8F01309719
:1003AA0061F00230E0E01E0780F0F80131978F011A
:1003BA00AA81BB811496ED93FC93AA81BB81129604
:1003CA000E9496073197AC81A083AA81BB810E94C3
:1003DA000B0BFF2312F00E94960706C0AA81BB816D
:1003EA00EFEFFFEFED93FC93198108810C94E70678
:1003FA000E949C07E0E8EA83EFE3EB830E94410B4B
:10040A00EE85FF85EF3FAFEFFA0749F4E885F985F6
:10041A00FA93EA93A4EBB0E00E94E906B7C0EF3F73
:10042A00AFE7FA0749F4E885F985FA93EA93A5EB69
:10043A00B0E00E94E906AAC0AB85A73010F0E6E05A
:10044A00EB871B85E12F1150E03019F00E94A307BA
:10045A00F9CFEC85FD856E857F850E943B0B21F4E3
:10046A0030E00E94A3072DC03B850E94B20709F025
:10047A0008F40BC00E94A3070E94B20728F00E944A
:10048A00BD070E94C207F8CF0DC00E94B20740F410
:10049A000E94BD070E94CE070E94D5073150F5CFB2
:1004AA000E94A307EC85FD856E857F850E94DA0789
:1004BA000E94D5070E94B20720F00E94BD070E9441
:1004CA00C20710E0EB85E117A8F1AC81BD818E81EE
:1004DA009F810E94E1070E94DA07DF01CB010E9497
:1004EA005407EC83FD836E837F830E94BD070E94BD
:1004FA00EE090E94DD080E2F0E94E8070E94EF070E
:10050A00FF27662777270E941609AC81BD818E8155
:10051A009F810E94A0090E94BD070E94F4070E94C1
:10052A00D507E12F1F5FE03069F60E94E807EEE287
:10053A00EC93C8CF0E94F9073197AA85A08330307F
:10054A002CF43195A885B985EDE203C0A885B98553
:10055A00EBE2EC930E94F9070E94F9073197BF0179
:10056A00A32FEAE00E949F0AE05DDB01EC930E9460
:10057A00F9073197BF01A32FEAE00E94E10AE05D83
:10058A00DB01EC93A885B985E0E0EC930E94480B67
:10059A0060960895BA93AA93EF9761970E943F0BCA
:1005AA0010E0FE01E85AFF4F0190F081E02DE88744
:1005BA00F987FE01EA5AFF4F0190F081E02DEE83A0
:1005CA00FF83AE81BF81E0E0F0E0ED93FC93DE01B2
:1005DA00A45ABF4F0E9496073197E4912E2FE0301C
:1005EA0009F4E9C1E12FE03039F4253211F411E0C0
:1005FA0002C00E94FF07DEC1E130C1F4253219F4BE
:10060A000E94FF07D6C112E0E0E0ED8B00E02D3238
:10061A0011F401E0CFC12B3219F4EBE2ED8BCAC120
:10062A00203219F4E0E2ED8BC5C102C0E23039F4A0
:10063A0050E013E0203311F40068BCC102C0E3307B
:10064A0091F4203310F02A3308F007C0AAE05A9F29
:10065A00502DE22FE0535E0FADC140E02E3211F46F
:10066A0014E0A8C10FC0E43099F4203310F02A3303
:10067A0008F008C00062AAE04A9F402DE22FE0532A
:10068A004E0F98C12C3619F4026015E093C103C0CD
:10069A00E53009F08FC1E22FE33659F40E940608CB
:1006AA000E940D080E940608A481AA930E941408B9
:1006BA0080C1E53411F0E53609F403C0E63609F0E5
:1006CA0048C0FE017696EE87FF870E941A080E94AC
:1006DA000F0B0E9421080E942608AD85AA2332F03A
:1006EA00AD89AB3259F0A03281F017C00E942808B8
:1006FA000E94AA080E942108EDE2ED8B07FF05C0BF
:10070A00ED89EA930E94140808C0EE85FF853196A8
:10071A00EE87FF873197AD89A08305FF46E026362D
:10072A0051F40E9428080E94240B4A93AB89BC8981
:10073A000E946D0509C00E9428080E94240B4A9352
:10074A002A93AC89BD8954DEFE0176960E942D0853
:10075A001EC0E33739F40E9426080E9435080E9419
:10076A002D080EC0E037C1F40E9426080E94350801
:10077A00EE87FF87AE85BF850E9402071E2F08609D
:10078A000F77403011F0411708F001C0142F40E0F4
:10079A00E0E0EC8B30E06DC0E43611F0E93611F49C
:1007AA00046002C0E537A1F4EAE0EC8B01FF08C05F
:1007BA00E0E0FAEC6AE97BE30E943A081AE022C018
:1007CA00E0E1F7E260E070E00E943A0815E01AC042
:1007DA00E83511F4086003C0E83709F0EAC0E0E13F
:1007EA00EC8B01FF08C0E0E0F0E060E070E10E94FD
:1007FA003A0818E007C0E0E0F0E160E070E00E942B
:10080A003A0814E0403011F00F7701C041E001FFCF
:10081A0008C00E9426080E941A0814960E940F0B0C
:10082A000FC002FF07C00E9426080E9435080E94D6
:10083A007F0A06C00E9426080E9435086627772785
:10084A00EA87FB876C877D8702FF12C0AD85AA23E2
:10085A0042F40E9428080E945B0A0E942108EDE2E5
:10086A00ED8BED89E03019F01F5F4F5F01C00B7F00
:10087A00342F00FD14C0151710F4351708F00FC0F7
:10088A0007FF08C002FF04C00B7F2D89115001C069
:10089A0020E301C020E20E94FF075150ECCF141759
:1008AA0090F4006102FF06C00E943F0809F051500F
:1008BA0011504150E0E3EA930E941408503009F0C5
:1008CA0051504150ECCF312FEC89E030B9F430303F
:1008DA00A1F003FF06C0EE85FF852591EE87FF870D
:1008EA0005C0AE85BF852D91AE87BF870E94FF07E1
:1008FA00503009F051503150EACF51C00E9451088E
:10090A000E94BC0A2E2F2A3030F003FF02C0295C55
:10091A0001C0295A01C0205D04FD21C0213360F4C1
:10092A00A889B9898A899B89A130E0E0BE07E0E0FD
:10093A008E07E0E09E0709F40BC0431740F45317F3
:10094A0010F000FF01C010C020E207FF08C020E33A
:10095A00006102FF04C00E943F0809F051500E9442
:10096A00FF07503009F0515031500E9451080E943F
:10097A00ED0A0E942108EC89A889B9898A899B898C
:10098A00FF27662777270E94BC0A0E943A08E8894F
:10099A00F9896A897B890E943B0B09F0AFCF00FF76
:1009AA0008C0503031F05150E0E2EA930E94140836
:1009BA00F8CF10E00CCEAE81BF810E940B0B0E94D3
:1009CA00460BEF966F960895FF92F82E26970E948F
:1009DA00410B0E945A08309719F4EFEFFFEF1DC040
:1009EA00DE0116960E94530A8D010E945A08EE8370
:1009FA00FF83E0E0E887E987DE011A960E94610832
:100A0A00E3ECF1E0FA93EA93DE011A96C3DD9F0163
:100A1A00AE81BF81E0E0EC93F9010E94480B2A966F
:100A2A00FF900895FF92F82E26971A930A93DE01F3
:100A3A0014960E94530A8D01E0E0EC83ED83EE8365
:100A4A00EF83DE0118960E946108E9EBF1E0FA9360
:100A5A00EA93DE0118969EDD198108812896FF9097
:100A6A000895BA93AA93B981A881EC918A2FAE2FDF
:100A7A000E941807A82FEE2311F01196F6CFE894DA
:100A8A00EC91ED3211F4689402C0EB3209F411963C
:100A9A0066277727EC918A2FAE2F0E940F07A82F7F
:100AAA00EE2379F0FB01660F771F660F771F6E0F33
:100ABA007F1F660F771FED91FF27E0536E0F7F1F91
:100ACA00E9CFFB011EF4E095F09531962296089540
:100ADA000E949C07E0E0EA83EFE3EB831A930A9310
:100AEA00EB85FC85EF3FAFEFFA0739F40E946A08FD
:100AFA00ACEBB0E00E94E906ADC0EF3FAFE7FA0702
:100B0A0039F40E946A08ADEBB0E00E94E906A2C07F
:100B1A00AC85AA2362F4E985FA856B857C850E94F7
:100B2A00AA080E946F080E947408EDE2EC93A88557
:100B3A00A73010F0E6E0E8871885E12F1150E03081
:100B4A0039F00E947B080E94E1070E948008F5CFD5
:100B5A000E9485080E9450090E946F0810E0E0E098
:100B6A00F0E060E87FE30E9480080E9485080E9406
:100B7A00330A88F00E947B080E94CE070E948008F0
:100B8A001F5F173238F00E946A08A1ECB0E00E9499
:100B9A00E90660C0EACF103029F40E947408E0E345
:100BAA00EC932BC0E12F1150E03039F10E947B0801
:100BBA000E94E1070E94DA07DF01CB010E94540775
:100BCA000E9480080E9485080E94EE090E94DD08A2
:100BDA000E2F0E9474080E94EF07F0E00E947B0823
:100BEA000E947F0A0E9416090E94A0090E948E088C
:100BFA000E94F4070E946F08D5CFE885E03031F1F2
:100C0A000E947408EEE2EC93E885E150E887EF5F12
:100C1A00E9F00E948E080E94CE070E946F08E985BB
:100C2A00FA856B857C850E94DD080E2F0E94740868
:100C3A000E94EF07F0E00E948E080E947F0A0E943D
:100C4A0016090E94F4070E946F08DECFAE81BF81A9
:100C5A00E0E0EC93198108812D960895AA93EBB3ED
:100C6A00EF70AE2FE881E07FEA2BEBBB87E08A9535
:100C7A00F1F7DA9A87E08A95F1F7DA9887E08A95A8
:100C8A00F1F790C0AA93A881E9DFE881E295E883A9
:100C9A00A881E4DF83E48A95F1F784C0AA93E88106
:100CAA00F0E0EC55FE4FE081A981AE0FEBDF498001
:100CBA00E881E093A80122960895A2E00E94930891
:100CCA00ACE0E0DFA1E00E949308E0E0E093A80135
:100CDA004E2E0895AA93A881AA3021F0E091A90185
:100CEA004E1660F0E0E0EA93A091A801AF5FA093EE
:100CFA00A801D4DFA881AA3009F454C04394D89A31
:100D0A00A881C0DFD8984EC0BA93AA931A93A98132
:100D1A00BA81ED91A983BA831E2FE03019F0A12F71
:100D2A00D9DFF5CF10C0BA93AA931A93E981FA8151
:100D3A003196E983FA833197E4911E2FE03019F056
:100D4A00A12FC8DFF3CF188123960895AA93EAB397
:100D5A00E06FEABBD29AD09AD19ADA98D898D99801
:100D6A00E881E093A901E058E093A601E881E05404
:100D7A00E093A701A4E1B0E00E94A0080E949908AC
:100D8A000E9499080E949908A0E268DF85E88A957E
:100D9A00F1F7A8E277DFA4E075DFA5E873DFA6E044
:100DAA0071DF8BDF21960895BA93AA93B981A8813E
:100DBA00109631F0FC81EB816A8161931197E9F712
:100DCA00EB81FC8125960895BA93AA93E991F9914A
:100DDA00A991B991CD0105900D920020E1F7FC018E
:100DEA000895BA93AA93A991B991EE27FF276D9115
:100DFA00662311F03196FBCF0895BA93AA93AA27D6
:100E0A00BB27E991F9910590002011F01196FBCFCB
:100E1A00FD010895AA93E1E0F991F03310F0FA3355
:100E2A0008F0EE270895AA93E1E0F991F03229F04B
:100E3A00F93010F0FE3008F0EE2708950E94290BD1
:100E4A007B816A81F981E88177FB770F67FD7160A1
:100E5A00972F9E5781F078F0983190F4AA27BB27F4
:100E6A00882708948795B795A7959A95D1F7EA2385
:100E7A00FB23682305C0E8947727EE27FF27662718
:100E8A006F77769508F4606877F9A991B991899195
:100E9A009991EA17FB076807790797FB08950E945B
:100EAA00290B0E941A0B0E9423070E941F0B19F498
:100EBA000E94150B09C0E6F70E94150BA0E0B0E0EE
:100ECA0080E89FE30E9449092496089513B2E02F0F
:100EDA00A1E0B0E00E946B0AA12DB0E0EA23FB2357
:100EEA0030970895E0E7F1E0FA93EA93E0E0EA93B5
:100EFA00A0E1B0E00E94D906E0E8F1E0FA93EA93B3
:100F0A00E0E0EA93A0E1B0E00E94D90655240895F2
:100F1A000E947F0A0E94240B84E00E9417052696ED
:100F2A000895ED91FD913196FE93EE930895BA934B
:100F3A00AA932497E0E0E883E9830895AC81BD8110
:100F4A008E819F81E0E0F0E060E271E40E94A009F6
:100F5A00EC83FD836E837F830895EC81FD816E812E
:100F6A007F81AC85BD858E859F850E94330A089551
:100F7A00AC85BD858E859F850895EDECFCEC6CEC07
:100F8A007DE30E94A009EC87FD876E877F873F5F1C
:100F9A000895E0E0F0E060E271E40E94A00908959B
:100FAA00EC87FD876E877F870895A0E0B0E080E038
:100FBA009FE30E9450090895EDECFCEC6CEC7DE394
:100FCA000E94A0090895A885B9851196A887B987AE
:100FDA0011970895E02FE05DEC93E02F08950E94A9
:100FEA002E0B0E9449090895E885F9853196E8870C
:100FFA00F98708952A93AF81B885E985FA85099515
:10100A000895FE01E65AFF4F0190F081E02D089500
:10101A003497DE01A65ABF4FED93FC930895AF8132
:10102A00B885E985FA8509950895DE01A65ABF4F64
:10103A000D90BC91A02D0895EA87FB876C877D8768
:10104A000895DFDFE5CFEA85FB856C857D85089508
:10105A00EE87FF87AE85BF850E94F6061E2F08958C
:10106A00E4DF14960E940B0B0895E88BF98B6A8BC8
:10107A007B8B08950B7FED89EA93DE01A95ABF4F56
:10108A000D90BC91A02DFE01E75AFF4F0190F0810F
:10109A00E02D099550300895E889F9896A897B8994
:1010AA00AA85BB858C859D850895DE011C960E94C4
:1010BA00530A0E940B0B08950E94530A0E940B0BBD
:1010CA00FA93EA931A930A930895EE81FF81FA93A9
:1010DA00EA930895E987FA876B877C870895AE813A
:1010EA00BF811196AE83BF8311970895AA81BB81F0
:1010FA008C819D810895EA83FB836C837D830895A7
:10110A00EA81FB816C817D81A985BA858B859C8565
:10111A000895A985BA858B859C8508950E944706FE
:10112A00A3E0B0E00C94A008A0E30E94330685E88F
:10113A008A95F1F70895109639F0A89588EE93E00C
:10114A000197F1F71197C9F70895309760407040F9
:10115A0009F070580895552342F4503811F4E0FF0D
:10116A0004C03196691F791F6BF050E8572711F4B4
:10117A005F93CFC05F3F31F0660F000C57956795BC
:10118A00752F08955F9300200AF0CFC0C8C050E8B9
:10119A00192E1522880F991F9527550F879550E804
:1011AA00072E0522660F771F7527550F6795089535
:1011BA00689401C0E8945F93F2DF703818F07F3FBB
:1011CA0008F4A7C056E1571BAAF4519558300EF4FB
:1011DA00593030F0EFEFFFEF6FEF7FE777F91AC082
:1011EA0077275523B9F0EE0FFF1F661F771F5A9511
:1011FA00D1F710C07727583028F0EF2FF62F672F36
:10120A005850F9CF552331F076956795F795E795BC
:10121A005A95D1F700200AF449D15F91089568944C
:10122A0001C0E894309760407040B1F0002426F085
:10123A00772312F400943AD1172E7EE1112032F06E
:10124A007A95EE0FFF1F661F111CF9CFEF2FF62FAD
:10125A00612D5F938ADF5F9108954F93AF01FD017E
:10126A00DA01AB01BC01CA01402D012C142E4F91A9
:10127A000895EA0FFB1F681F0895E095F0956095A1
:10128A00EF5FFF4F6F4F08955F9381DF903871F1E1
:10129A0050E8152604C05F937ADF903839F1703828
:1012AA0021F1572F591B2BF112F4D7DFFACF5831FE
:1012BA0018F0AA27BB278827583028F0AB2FB82F59
:1012CA0088275850F9CF552329F08695B795A795C1
:1012DA005A95D9F7502D512572F0CBDF38F467951E
:1012EA00F795E795739513F420C0B7DF3EDF5F915A
:1012FA000895D8F7FBCFEA1BFB0B680B51F010F4EB
:10130A000094BBDF662392F3EE0FFF1F661F7A95E8
:10131A00CBF7EE27FF27662777275F910895EFEF30
:10132A00FFEF6FE77FEF5F910895EFEFFFEF6FE752
:10133A007FE75F9108955F932ADF703851F3903801
:10134A0041F301240894791F23F41CF300203AF393
:10135A00ECCF0F921F932F933F934F93112722277E
:10136A009927689FA0018F9F302D410D591F6B9FB0
:10137A00300D411D591F8E9F27D0BF9F25D06A9FD0
:10138A0023D0BE9F1DD0AF9F1BD0AE9F110D291F2A
:10139A00391F491F591FE32FF42F652F522F4F91E1
:1013AA003F912F911F910F9066232AF0550FEE1F40
:1013BA00FF1F661F02C073954BF2CDDE5F91089541
:1013CA00100D211D391F02C0200D311D491F591F43
:1013DA0008955F93DCDE703821F411200AF49FCF60
:1013EA00A4CF903809F495CF01240894970B1BF4E5
:1013FA00D4F30020F3CF792F1F932F933F934F936A
:10140A0011241127222733274427552790E2AE17A4
:10141A00BF078607410730F0AE1BBF0B860B410B97
:10142A00089401C08894551F221F331F111CAA1F3C
:10143A00BB1F881F441F9A9551F7F901612D4F91DF
:10144A003F912F911F91662332F0550FEE1FFF1F18
:10145A00661F7A9543F27FDE5F91089599239AF089
:10146A00772342F0971748F029F4AE17BF0786078B
:10147A0020F031F0989488940895989408940895E7
:10148A001894889408957723C2F7971798F3A9F7C1
:10149A00EA17FB07680788F399F3ECCF0024AF0D2E
:1014AA00B01D0895F195E195F0400895F095609585
:1014BA007095E195FF4F6F4F7F4F0895EE230E2EE3
:1014CA00EA2F19F0EE0F0A94E9F70895EE230E2E8B
:1014DA00FD0121F0EE0FFF1F0A94E1F70895EE0FC8
:1014EA00FF1FEE0FFF1F0895FE2FFF0FFF0B6F2F39
:1014FA007F2F08956F2F660F660B762F0895FA9F38
:10150A00F02DEB9FF00DEA9FE02DF10D089570D0BC
:10151A00F6DF0EF4C7DF0895002498E0AA0F001C36
:10152A000E1A10F40E0E01C0A1609A95B9F7EA2FAF
:10153A00A02D089551D0F0DF0EF4E195089500240E
:10154A00112490E1AA0FBB1F001C111C0E1A1F0ABE
:10155A0018F40E0E1F1E01C0A1609A9599F7FD019D
:10156A00D001089545D0EBDF0EF49CDF08953F9338
:10157A004F935F93002411244427552730E2AA0F82
:10158A00BB1F881F991F001C111C441F551F0E1AD0
:10159A001F0A460B570B28F40E0E1F1E461F571F15
:1015AA0001C0A1603A9559F7FD01BC01D001CA01F9
:1015BA005F914F913F910895E894A7FF02C0A195CA
:1015CA006894E7FDE195A8DFEA2F0EF4E195089506
:1015DA00CEDFFD01BC010895E894E7FF02C0E19562
:1015EA006894A7FF04C0A19500F8039400FA08952F
:1015FA00E894F7FF02C056DF6894B7FF06C0A095CB
:10160A00B095119600F8039400FA0895ED91FC91B3
:10161A0011970895ED91FD916D917C91139708951D
:10162A00E881F9816A817B810895A881B9818A81DB
:10163A009B810895E883F9836A837B8308957A936B
:10164A006A93FA93EA9308959A938A93BA93AA9318
:10165A000895182E862F612D192E972F712D1B2E66
:10166A00BF2FF12D1A2EAE2FE12D0895309760402D
:10167A00704008955A934A933A932A931A930A9375
:10168A0008955D814C813B812A81198108810895E1
:00000001FF
